:100000000C942A000C9415020C9447000C944700A1
:100010000C9447000C9447000C9447000C94470044
:100020000C9447000C9447000C9447000C94C603B2
:100030000C9447000C9447000C9447000C94470024
:100040000C9447000C9447000C9447000C94470014
:100050000C94470011241FBECFE5D8E0DEBFCDBF12
:1000600010E0A0E6B0E0EAE6FDE002C005900D92E7
:10007000A03AB107D9F720E0A0EAB0E001C01D9294
:10008000AD3AB207E1F70E944E020C94B3060C940D
:10009000000060E080E00E943F028093A00061E0E9
:1000A00080E00E943F028093A00062E080E00E9416
:1000B0003F028093A00060E081E00E943F028093B5
:1000C000A00061E081E00E943F028093A00062E016
:1000D00081E00E943F028093A00021E040E054E0D4
:1000E0006CE080E00E9458038093A00063E080E011
:1000F0000E94EE028093A000882341F080E690E009
:100100009F938F930E94D5030F900F9008950E94A4
:100110009E038091A400823009F496C030F48823B5
:1001200069F0813009F44DC00895843009F409C1A3
:1001300008F4CCC0853009F43FC1089562E080E046
:100140000E9447028093A00061E080E00E94470285
:100150008093A00060E080E00E9443028093A000B2
:1001600062E081E00E9443028093A00061E081E0B0
:100170000E9447028093A00060E081E00E94470255
:100180008093A000882341F08CE890E09F938F93A8
:100190000E94D5030F900F908091A300882331F027
:1001A00083E08093A4001092A30008958091A100A1
:1001B000882309F439C181E08093A4001092A10042
:1001C000089562E080E00E9447028093A00061E011
:1001D00080E00E944B028093A00060E080E00E94DB
:1001E00047028093A00062E081E00E944302809376
:1001F000A00061E081E00E9447028093A00060E0DF
:1002000081E00E9447028093A000882341F08CE89F
:1002100090E09F938F930E94D5030F900F90809151
:10022000A300882331F083E08093A4001092A30000
:1002300008958091A100882309F4F6C082E080939C
:10024000A4001092A100089562E080E00E944302A1
:100250008093A00060E080E00E9447028093A000AD
:1002600061E080E00E9447028093A00062E081E0AC
:100270000E9443028093A00061E081E00E94470257
:100280008093A00060E081E00E9447028093A0007C
:10029000882341F08CE890E09F938F930E94D503D0
:1002A0000F900F908091A300882331F084E0809319
:1002B000A4001092A30008958091A100882309F45E
:1002C000B3C01092A4001092A100089562E080E0F3
:1002D0000E9447028093A00061E080E00E944B02F0
:1002E0008093A00060E080E00E9447028093A0001D
:1002F00062E081E00E9443028093A00061E081E01F
:100300000E944B028093A00060E081E00E944702BF
:100310008093A000882341F08CE890E09F938F9316
:100320000E94D5030F900F908091A100882309F4BB
:100330007BC084E08093A4001092A1001092A300DF
:10034000089562E080E00E9443028093A00061E093
:1003500080E00E9447028093A00060E080E00E945D
:1003600047028093A00062E081E00E9447028093F0
:10037000A00061E081E00E9447028093A00060E05D
:1003800081E00E9443028093A000882341F08CE822
:1003900090E09F938F930E94D5030F900F908091D0
:1003A000A100882309F440C085E08093A400109246
:1003B000A1001092A300089562E080E00E9447022D
:1003C0008093A00061E080E00E944B028093A00037
:1003D00060E080E00E9447028093A00062E081E03C
:1003E0000E9447028093A00061E081E00E944B02DE
:1003F0008093A00060E081E00E9443028093A0000F
:10040000882341F08CE890E09F938F930E94D5035E
:100410000F900F908091A100882331F01092A400DA
:100420001092A1001092A30008951F920F920FB690
:100430000F9211242F933F934F935F936F937F936A
:100440008F939F93AF93BF93EF93FF9381E080933C
:10045000A3008CE00E94AA031092A200FF91EF91EA
:10046000BF91AF919F918F917F916F915F914F91CC
:100470003F912F910F900FBE0F901F90189541E064
:100480000E945502089541E00E949202089540E0C2
:100490000E94920208950E94CF0208950E94AC0328
:1004A0000E9449000E948700FDCF882319F0813007
:1004B000E1F036C041110DC02AB381E090E002C0E6
:1004C000880F991F6A95E2F7809582238ABB80E0A6
:1004D00008952AB381E090E002C0880F991F6A95C1
:1004E000E2F7822B8ABB80E0089541110DC027B34B
:1004F00081E090E002C0880F991F6A95E2F780952D
:10050000822387BB80E0089527B381E090E002C09A
:10051000880F991F6A95E2F7822B87BB80E00895C8
:1005200081E00895882319F08130E1F036C041114F
:100530000DC02BB381E090E002C0880F991F6A952F
:10054000E2F7809582238BBB80E008952BB381E096
:1005500090E002C0880F991F6A95E2F7822B8BBB4F
:1005600080E0089541110DC028B381E090E002C001
:10057000880F991F6A95E2F78095822388BB80E0F7
:10058000089528B381E090E002C0880F991F6A9512
:10059000E2F7822B88BB80E0089581E008958823EC
:1005A00019F0813069F018C02BB381E090E002C0EF
:1005B000880F991F6A95E2F782278BBB80E0089528
:1005C00028B381E090E002C0880F991F6A95E2F796
:1005D000822788BB80E0089581E008959FB79068E6
:1005E0009FBF813069F120F0823009F451C058C0BA
:1005F000613069F028F0623089F06330B1F052C0A8
:1006000085B78E7F85BF85B78D7F85BF14C085B7C1
:10061000816085BF85B78D7F85BF0DC085B78E7F13
:1006200085BF85B7826085BF06C085B7816085BFFD
:1006300085B7826085BF8BB780648BBF80E00895EB
:10064000613069F028F0623089F06330B1F02CC07D
:1006500085B78B7F85BF85B7877F85BF14C085B77A
:10066000846085BF85B7877F85BF0DC085B78B7FC9
:1006700085BF85B7886085BF06C085B7846085BFA4
:1006800085B7886085BF8BB780688BBF80E0089591
:100690006250623058F48BB780628BBF80E008955F
:1006A00082E0089582E0089582E0089582E008954E
:1006B000882321F08130F1F183E0089562BF222385
:1006C00019F089B7816089BF40345105F1F03CF4DD
:1006D0004130510561F04830510581F02DC0411580
:1006E00081E05807C9F041155440E9F025C08091D8
:1006F000A60081608093A60080E008958091A60006
:1007000082608093A60080E008958091A6008360B7
:100710008093A60080E008958091A6008460809375
:10072000A60080E008958091A60085608093A600D1
:1007300080E0089580E0089583E008958091A60008
:10074000882319F083BF80E0089583E0089583B77C
:1007500013BE089582BF08958FB780688FBF21E0D0
:1007600041E050E060E080E00E9458030E949E0358
:100770008091A5008823E1F30E94A70380E090E028
:1007800001C0019683309105E4F308951F920F9202
:100790000FB60F9211248F9381E08093A5008F9163
:1007A0000F900FBE0F901F901895A0E0B0E0EBEDFA
:1007B000F3E00C948C06AE014B5F5F4FFA01619140
:1007C0007191AF018091A9009091AA000E94EB0362
:1007D000E2E00C94A806ABE0B0E0E1EFF3E00C94AB
:1007E0007C066C017B018A01FC01178216828381E1
:1007F00081FFCCC1CE0101963C01F6019381F70146
:1008000093FD859193FF81917F01882309F4BAC1FB
:10081000853239F493FD859193FF81917F01853273
:1008200029F4B60190E00E94E205E7CF912C212C3B
:10083000312CFFE1F315D8F08B3279F038F48032A7
:1008400079F08332A1F4232D20611DC08D3261F037
:10085000803369F4232D216016C0832D8260382EE9
:10086000E32DE4603E2E2AC0F32DF8601DC037FC56
:100870002DC020ED280F2A3040F08E32B9F436FC1E
:1008800081C1232D2064322E19C036FE06C08AE0B5
:10089000989E200D1124922E11C0EAE02E9E200D6C
:1008A0001124222EF32DF0623F2E08C08C3621F445
:1008B000832D8068382E02C0883641F4F70193FDFD
:1008C000859193FF81917F018111B3CF982F9F7DF7
:1008D0009554933028F40C5F1F4F9FE399830DC00C
:1008E000833631F0833771F0833509F059C021C068
:1008F000F801808189830E5F1F4F88248394912C97
:10090000530113C02801F2E04F0E511CF801A080E2
:10091000B18036FE03C0692D70E002C06FEF7FEF3B
:10092000C5010E94D7054C018201F32DFF773F2EB0
:1009300016C0280122E0420E511CF801A080B180AF
:1009400036FE03C0692D70E002C06FEF7FEFC50176
:100950000E94CC054C01F32DF0683F2E820133FC40
:100960001BC0822D90E088169906B0F4B60180E293
:1009700090E00E94E2052A94F4CFF50137FC8591BE
:1009800037FE81915F01B60190E00E94E2052110DF
:100990002A9421E0821A91088114910471F7E8C029
:1009A000843611F0893641F5F80137FE07C06081C1
:1009B0007181828193810C5F1F4F08C060817181BA
:1009C000072E000C880B990B0E5F1F4FF32DFF763F
:1009D0003F2E97FF09C090958095709561957F4F48
:1009E0008F4F9F4FF0683F2E2AE030E0A3010E9416
:1009F0001E06882E861845C0853731F4232D2F7E9C
:100A0000B22E2AE030E025C0932D997FB92E8F3683
:100A1000C1F018F4883579F0B5C0803719F08837FF
:100A200021F0B0C0E92FE061BE2EB4FE0DC0FB2D59
:100A3000F460BF2E09C034FE0AC0292F2660B22EF2
:100A400006C028E030E005C020E130E002C020E12F
:100A500032E0F801B7FE07C0608171818281938125
:100A60000C5F1F4F06C06081718180E090E00E5FD7
:100A70001F4FA3010E941E06882E8618FB2DFF77AC
:100A80003F2E36FE0DC0232D2E7FA22E891458F442
:100A900034FE0BC032FC09C0832D8E7EA82E05C00B
:100AA000B82CA32C03C0B82C01C0B92CA4FE0FC0D5
:100AB000FE01E80DF11D8081803321F49A2D997E8D
:100AC000A92E09C0A2FE06C0B394B39404C08A2D17
:100AD000867809F0B394A3FC11C0A0FE06C0B2143E
:100AE00088F4280C922C9B180EC0B21460F4B60146
:100AF00080E290E00E94E205B394F7CFB21418F4BC
:100B00002B1802C0982C212CA4FE10C0B60180E343
:100B100090E00E94E205A2FE17C0A1FC03C088E796
:100B200090E002C088E590E0B6010CC08A2D86787E
:100B300059F0A1FE02C08BE201C080E2A7FC8DE269
:100B4000B60190E00E94E205891438F4B60180E312
:100B500090E00E94E2059A94F7CF8A94F301E80DA1
:100B6000F11D8081B60190E00E94E2058110F5CF71
:100B7000222009F442CEB60180E290E00E94E20514
:100B80002A94F6CFF6018681978102C08FEF9FEFFE
:100B90002B96E2E10C949806FC01059061507040A0
:100BA0000110D8F7809590958E0F9F1F0895FC0136
:100BB0006150704001900110D8F7809590958E0F8C
:100BC0009F1F08950F931F93CF93DF93FB01238102
:100BD00021FD03C08FEF9FEF2CC022FF16C046817E
:100BE0005781248135814217530744F4A081B18194
:100BF0009D012F5F3F4F318320838C932681378166
:100C00002F5F3F4F3783268314C08B01EC01FB011C
:100C10000084F185E02D0995892BE1F6D80116961F
:100C20008D919C911797019617969C938E9316978A
:100C3000CE01DF91CF911F910F910895FA01AA275C
:100C4000283051F1203181F1E8946F936E7F6E5F0F
:100C50007F4F8F4F9F4FAF4FB1E03ED0B4E03CD0BD
:100C6000670F781F891F9A1FA11D680F791F8A1FA0
:100C7000911DA11D6A0F711D811D911DA11D20D007
:100C800009F468943F912AE0269F11243019305DC1
:100C90003193DEF6CF010895462F4770405D4193B2
:100CA000B3E00FD0C9F7F6CF462F4F70405D4A33FF
:100CB00018F0495D31FD4052419302D0A9F7EACFC7
:100CC000B4E0A6959795879577956795BA95C9F7F6
:100CD00000976105710508959B01AC010A2E0694E9
:100CE0005795479537952795BA95C9F7620F731FA2
:100CF000841F951FA01D08952F923F924F925F92DF
:100D00006F927F928F929F92AF92BF92CF92DF921B
:100D1000EF92FF920F931F93CF93DF93CDB7DEB780
:100D2000CA1BDB0B0FB6F894DEBF0FBECDBF099414
:100D30002A88398848885F846E847D848C849B846B
:100D4000AA84B984C884DF80EE80FD800C811B8179
:100D5000AA81B981CE0FD11D0FB6F894DEBF0FBEA8
:0A0D6000CDBFED010895F894FFCF18
:100D6A004552524F523A20636F756C64206E6F740D
:100D7A0020696E697469616C697A65207468652096
:100D8A006170706C69636174696F6E004552524F8D
:100D9A00523A20617070206661696C757265000054
:00000001FF
